:100000000C9427010C9458010C9458010C9458013D
:100010000C9458010C9458010C9458010C945801FC
:100020000C9458010C9458010C9458010C945801EC
:100030000C9458010C9458010C9458010C945801DC
:100040000C9458010C9458010C9458010C945801CC
:100050000C9458010C9458010C9458010C946D03A5
:100060000C9458010C9458010C9458010C945801AC
:100070000C9458010C9458010C9458010C9458019C
:100080000C9458010C9458010C9458010C9458018C
:100090000C9458010C9458010C9458010C9458017C
:1000A0000C9458010C9458010C9458010C9458016C
:1000B0000C9458010C9458010C9458010C9458015C
:1000C0000C9458010C9458010C9458010C9458014C
:1000D0000C9458010C9458010C9458010C9458013C
:1000E0000C9458010C94CE010C94B3010C94A00113
:1000F0000C94B7010C9407060C94A9010C94CF0141
:100100000C94BB010C9494010C94AD010C94D3019C
:100110000C94C1010C94C9010C949C010C94C50170
:100120000C94A3010C9498010C948E010000210002
:10013000240027002A002D003000330001010000B8
:10014000040107010A0100002200250028002B00FD
:100150002E003100340002010000050108010B01EE
:10016000000020002300260029002C002F00320070
:100170000001000003010601090105050505070549
:1001800008080808020202020A0A08080404040413
:10019000010101010101010103030303030303033F
:1001A000040707070C0C0C0C0C0C0C0C02020202CE
:1001B00006060606060606060B0B0B0B0B0B0B0BB7
:1001C0000102102020080810204010204080020169
:1001D000020108040201010204081020408080404E
:1001E000201008040201800402018040201008044D
:1001F00002010804020101020408102040800102EB
:1002000004081020408000000A0B02090C0D0E08A3
:1002100007030401000000000000000000000000CF
:1002200000000000000000000000000000000000CE
:10023000000012111000000000000000000000008B
:10024000000000000000000000000000070611246C
:100250001FBECFEFD1E2DEBFCDBF00E00CBF16E086
:10026000A0E0B2E0EAEBF1E100E00BBF02C00790D2
:100270000D92A838B107D9F726E0A8E8B6E001C08A
:100280001D92A23FB207E1F711E0C7E2D1E000E022
:1002900006C021970109802FFE010E94BF08C632C7
:1002A000D10780E00807A9F70E94B7030C94DB0888
:1002B0000C94000080917B00877F80937B0080E41A
:1002C00080937C0080917A00806480937A00809192
:1002D0007A0086FDFCCF8091780090917900089596
:1002E0008150823108F05AC0E82FF0E08827E458A6
:1002F000FE4F8F4F0C94BF089C01A0018E0194010A
:100300009801CE01A301A901AD01B301B701BB0161
:10031000C101C501CE01C901CF01D3018091800087
:100320008F77809380000895809180008F7DF9CF32
:1003300080918000877FF5CF84B58F7784BD089545
:1003400084B58F7DFBCF8091B0008F778093B00014
:1003500008958091B0008F7DF9CF809190008F77C4
:10036000809390000895809190008F7DF9CF8091C7
:100370009000877FF5CF8091A0008F778093A000B9
:1003800008958091A0008F7DF9CF8091A000877F94
:10039000F5CF809120018F7780932001089580917F
:1003A00020018F7DF9CF80912001877FF5CFCF93FA
:1003B000DF93282F30E0F901EA5FFD4F8491F901C6
:1003C000E054FE4FD491F901E658FE4FC491CC237E
:1003D000A1F081110E947001EC2FF0E0EE0FFF1FE1
:1003E000E05AFE4FA591B491EC91ED2381E090E0AD
:1003F00009F480E0DF91CF91089580E090E0FACF9A
:100400001F93CF93DF93282F30E0F901EA5FFD4F70
:100410008491F901E054FE4FD491F901E658FE4F62
:10042000C491CC23A9F0162F81110E947001EC2FEA
:10043000F0E0EE0FFF1FEA5BFE4FA591B4918FB77E
:10044000F894EC91111108C0D095DE23DC938FBF96
:10045000DF91CF911F910895DE2BF8CFCF93DF93DB
:1004600090E0FC01E054FE4F249186589E4FFC0121
:1004700084918823D1F090E0880F991FFC01E45DFE
:10048000FE4FA591B491FC01EA5BFE4FC591D4915A
:1004900061110EC09FB7F8948C91E22FE0958E23E6
:1004A0008C932881E223E8839FBFDF91CF91089549
:1004B0008FB7F894EC91E22BEC938FBFF6CF3FB758
:1004C000F8948091960690919706A0919806B09125
:1004D000990626B5A89B05C02F3F19F00196A11DCE
:1004E000B11D3FBFBA2FA92F982F8827BC01CD017E
:1004F000620F711D811D911D42E0660F771F881FDD
:10050000991F4A95D1F70895CF92DF92EF92FF920B
:100510000F931F93CF93DF931F921F92CDB7DEB738
:1005200069834A83880F991F0091F0061091F106A4
:10053000000F111FEAE9F6E09F012A593640201703
:10054000310714F41192F8CF2981FC01E656F94FD6
:1005500021838A81808360E08091EE060E94000200
:100560001016110604F501501109F801E656F94F6D
:10057000E080D090EC06C090EA0688E0F82E6E2D60
:10058000661F6627661F8C2D0E940002EE0C61E03C
:100590008D2D0E94000260E08D2D0E940002FA94D1
:1005A000F110EDCFDDCF61E08091EE060F900F905E
:1005B000DF91CF911F910F91FF90EF90DF90CF903F
:1005C0000C940002EF92FF921F93CF93DF93209140
:1005D000F0063091F10682179307B4F4EC0123E0A2
:1005E000880F991F2A95E1F79C012655394F79010B
:1005F00011E0F70111927F0140E0612FCE010E94CE
:1006000084021F5F1930A9F7DF91CF911F91FF90EE
:10061000EF900895CF92DF92EF92FF920F931F9386
:10062000CF93883091054CF58B01CEE0C80F61E087
:100630008C2F0E94000260E0802F0E9400020E9426
:100640005F026B017C010E945F026C197D098E09BB
:100650009F09683E734081059105A8F360E08C2FE7
:100660000E94000261E0802FCF911F910F91FF90B7
:10067000EF90DF90CF900C9400022091F006309123
:10068000F106121613060CF568307105F1F00897A3
:1006900088309105D4F440E850E09A0102C03595C5
:1006A00027958A95E2F7FB01E656F94F4089422BE0
:1006B000408B6F5F90E080E0CF911F910F91FF9092
:1006C000EF90DF90CF900C948402CF911F910F9107
:1006D000FF90EF90DF90CF9008951F920F920FB68A
:1006E0000F9211242F933F938F939F93AF93BF93B8
:1006F0008091920690919306A0919406B0919506F0
:100700003091910623E0230F2D3758F50196A11D56
:10071000B11D209391068093920690939306A09327
:100720009406B09395068091960690919706A091B5
:100730009806B09199060196A11DB11D8093960669
:1007400090939706A0939806B0939906BF91AF91A6
:100750009F918F913F912F910F900FBE0F901F90FF
:10076000189526E8230F0296A11DB11DD2CFCF9375
:10077000DF9300D01F92CDB7DEB7789484B5826046
:1007800084BD84B5816084BD85B5826085BD85B535
:10079000816085BD80916E00816080936E001092B3
:1007A000810080918100826080938100809181002E
:1007B00081608093810080918000816080938000BF
:1007C0008091B10084608093B1008091B00081601D
:1007D0008093B0008091910082608093910080911D
:1007E000910081608093910080919000816080935E
:1007F00090008091A10082608093A1008091A1006F
:1008000081608093A1008091A00081608093A0000E
:10081000809121018260809321018091210181607A
:10082000809321018091200181608093200180913B
:100830007A00846080937A0080917A00826080934D
:100840007A0080917A00816080937A0080917A00AA
:10085000806880937A001092C1002FB7F89460915D
:1008600092067091930680919406909195062FBF01
:10087000611571058105910511F00E940E0719821D
:1008800061E089810E942E0261E089810E9400025C
:1008900029812F5F2983283099F73EE0398361E071
:1008A00089810E942E0260E089810E9400024981B4
:1008B0004F5F4983463199F760E089810E942E029B
:1008C00069816F5F69836D31B9F786E10E94D70155
:1008D00090938D0680938C0687E10E94D7018091CA
:1008E000F0069091F1061816190634F441E06CE018
:1008F00090E080E00E9484028091F0069091F106E1
:100900001816190634F448E06AE090E080E00E948E
:10091000840222242A94312C88E10E94D70120915C
:100920009006892B09F441C0211112C081E0809307
:1009300090062FB7F8948091920690919306A0911B
:100940009406B09195062FBF90938F0680938E06E4
:100950008091020290910302019709F0CDC086E1D7
:100960000E94D7012C0190938D0680938C0687E11D
:100970000E94D70120918A0630918B063C832B83FD
:10098000892B09F4C1C03901D12CC12C10E000E041
:10099000C601885F9D4F9A838983C301800F911F91
:1009A00097FF34C086579F4FFBCF222389F21092C6
:1009B00090062FB7F8948091920690919306A0919B
:1009C0009406B09195062FBF20918E0630918F0628
:1009D000821B930B893B9B400CF4BACF809102029F
:1009E00090910302019759F482E090E09093030202
:1009F0008093020290E080E00E94E202A9CF21E011
:100A000030E03093030220930202F4CF6AE870E0F2
:100A10000E94AB084C01909389068093880690E170
:100A200089169104E4F4F12CE12CA980BA80A00E7F
:100A3000B11E26E02E9DF0012F9DF00D1124EA0D30
:100A4000FB1D8081882321F0B701C4010E940A03A5
:100A50003FEFE31AF30A48E0E416F10451F70F5FA1
:100A60001F4F0630110509F098CF60E3C60ED11C68
:100A700086E0680E711C90E5C91694E0D90609F06D
:100A800085CF80910002909101020197909301021D
:100A900080930002892B81F50E945A01B1010E94C6
:100AA000AB08CB0124E1289FB001299F700D1124D0
:100AB000072E000C880B990B0E941F0820E030E0E5
:100AC00040E450E40E947B070E94E7077093010214
:100AD0006093000290E080E00E94E2028B819C81A2
:100AE00001962B813C8121503109452809F48AC0A7
:100AF00090938B0680938A0680E090E0892B09F41E
:100B00000BCF0E94000008CF8B819C8197FF06C00D
:100B100027E130E030938B0620938A0610E000E056
:100B2000680135E0C30ED11CD0928906C0928806B8
:100B3000F12CE12C80918A0690918B069A8389830F
:100B400067E170E00E94AB0846E04E9D90014F9D2A
:100B5000300D112460E3689FA001699F500D11249E
:100B6000240F351FF901E85FFD4FE00FF11F808171
:100B7000882321F0B701C6010E940A038FEFE81A0B
:100B8000F80A98E0E916F104A9F60F5F1F4F063046
:100B9000110531F680910002909101020197909326
:100BA000010280930002892B09F0A6CF0E945A010E
:100BB000B1010E94AB08CB012CE3289FB001299F13
:100BC000700D1124072E000C880B990B0E941F0832
:100BD00020E030E040E752E40E947B070E94E707F4
:100BE000709301026093000290E080E00E94E202B4
:100BF00029813A812F5F3F4F452821F089819A81D1
:100C0000019776CF30938B0620938A0675CFCF93CA
:100C1000DF93CCE0D0E0D093EB06C093EA068AE005
:100C200090E09093ED068093EC068BE090E090933B
:100C3000EF068093EE0681E090E09093F1068093BA
:100C4000F00661E08CE00E942E0261E08091EC06EB
:100C50000E942E0261E08091EE060E942E0261E069
:100C60008091EE060E940002D093EB06C093EA0644
:100C7000EAEAF6E08AEE96E011928E179F07E1F716
:100C8000D0E0C0E08091F0069091F106C817D90736
:100C90003CF540E06FE0CE010E9484028091F006B6
:100CA0009091F106C817D9072CF447E06BE0CE010C
:100CB0000E94840240E069E0CE010E948402CE01DD
:100CC0000E94E2028091F0069091F106C817D907C0
:100CD0002CF440E06CE0CE010E9484022196D2CF39
:100CE000DF91CF9108958F929F92AF92BF92CF9252
:100CF000DF92EF92FF92CF93DF93EC0168817981CD
:100D00008A819B81611571058105910521F464E259
:100D100079ED8BE597E02DE133EF41E050E00E9463
:100D2000170749015A019B01AC01A7EAB1E40E94EF
:100D300036076B017C01ACEEB4EFA50194010E9473
:100D40004407C60ED71EE81EF91EF7FE06C081E056
:100D5000C81AD108E10880E8F80AC882D982EA8274
:100D6000FB82C701B6019F77DF91CF91FF90EF9093
:100D7000DF90CF90BF90AF909F908F9008958F920B
:100D80009F92AF92BF92CF92DF92EF92FF926091CB
:100D9000040270910502809106029091070261158C
:100DA00071058105910521F464E279ED8BE597E009
:100DB0002DE133EF41E050E00E94170749015A014D
:100DC0009B01AC01A7EAB1E40E9436076B017C01EC
:100DD000ACEEB4EFA50194010E944407C60ED71EE5
:100DE000E81EF91EF7FE06C081E0C81AD108E10826
:100DF00080E8F80AC0920402D0920502E09206024E
:100E0000F0920702C701B6019F77FF90EF90DF9045
:100E1000CF90BF90AF909F908F9008956093040201
:100E20007093050280930602909307020895052EA1
:100E300097FB1EF400940E942E0757FD07D00E94D6
:100E4000490707FC03D04EF40C942E0750954095AB
:100E5000309521953F4F4F4F5F4F08959095809566
:100E6000709561957F4F8F4F9F4F08950E946B073C
:100E7000A59F900DB49F900DA49F800D911D1124EE
:100E80000895B7FF0C9436070E943607821B930B18
:100E90000895A1E21A2EAA1BBB1BFD010DC0AA1FBB
:100EA000BB1FEE1FFF1FA217B307E407F50720F0D3
:100EB000A21BB30BE40BF50B661F771F881F991F4E
:100EC0001A9469F760957095809590959B01AC0197
:100ED000BD01CF010895A29FB001B39FC001A39FA0
:100EE000700D811D1124911DB29F700D811D112463
:100EF000911D08955058BB27AA270E9492070C9471
:100F000071080E94630838F00E946A0820F039F4E2
:100F10009F3F19F426F40C9460080EF4E095E7FB6B
:100F20000C945A08E92F0E94820858F3BA176207F6
:100F300073078407950720F079F4A6F50C94A408AC
:100F40000EF4E0950B2EBA2FA02D0B01B9019001E4
:100F50000C01CA01A0011124FF27591B99F0593F28
:100F600050F4503E68F11A16F040A22F232F342F70
:100F70004427585FF3CF469537952795A795F040BE
:100F80005395C9F77EF41F16BA0B620B730B840BD3
:100F9000BAF09150A1F0FF0FBB1F661F771F881F8B
:100FA000C2F70EC0BA0F621F731F841F48F48795E3
:100FB00077956795B795F7959E3F08F0B0CF9395D5
:100FC000880F08F09927EE0F9795879508950E944E
:100FD000EE076894B1110C94A50808950E948A0840
:100FE00088F09F5798F0B92F9927B751B0F0E1F0EA
:100FF000660F771F881F991F1AF0BA95C9F714C09A
:10100000B13091F00E94A408B1E008950C94A408B6
:10101000672F782F8827B85F39F0B93FCCF38695D2
:1010200077956795B395D9F73EF49095809570952F
:1010300061957F4F8F4F9F4F0895E89409C097FBAC
:101040003EF490958095709561957F4F8F4F9F4F9F
:101050009923A9F0F92F96E9BB279395F6958795E3
:1010600077956795B795F111F8CFFAF4BB0F11F4A6
:1010700060FF1BC06F5F7F4F8F4F9F4F16C088234D
:1010800011F096E911C0772321F09EE8872F762F83
:1010900005C0662371F096E8862F70E060E02AF0C4
:1010A0009A95660F771F881FDAF7880F96958795B0
:1010B00097F9089597F99F6780E870E060E00895D8
:1010C0009FEF80EC089500240A9416161706180660
:1010D0000906089500240A9412161306140605063C
:1010E0000895092E0394000C11F4882352F0BB0FCD
:1010F00040F4BF2B11F460FF04C06F5F7F4F8F4F30
:101100009F4F089557FD9058440F551F59F05F3F6A
:1011100071F04795880F97FB991F61F09F3F79F019
:1011200087950895121613061406551FF2CF46959B
:10113000F1DF08C0161617061806991FF1CF86951D
:101140007105610508940895E894BB276627772701
:10115000CB0197F9089597FB072E16F4009407D05A
:1011600077FD09D00E94C70807FC05D03EF4909592
:1011700081959F4F0895709561957F4F0895EE0F6B
:10118000FF1F881F8BBF0790F691E02D1994AA1BB3
:10119000BB1B51E107C0AA1FBB1FA617B70710F062
:1011A000A61BB70B881F991F5A95A9F78095909594
:0A11B000BC01CD010895F894FFCFB3
:1011BA00140001000100000000000000000000000F
:1011CA000000000000000000010000000001000013
:1011DA000000010000000000000100000000000003
:1011EA0001000000000000000000000000000001F3
:1011FA0001010000000100000100000100000100DF
:10120A0000010101000000010000000000010000CF
:10121A0000000001000000000000000000000001C2
:10122A0001010000000100000100000100000100AE
:10123A00000101010000000100000100000100009E
:10124A000100000100000100000000000000000091
:10125A00010100000001000001000001000001007E
:10126A00000100000100000101010100000100006D
:10127A000100000100000100000000000000000061
:10128A00010100000001000001000001000000004F
:10129A000001000000000001000000000001000041
:1012AA000100000001010000000000000000000031
:1012BA000100000000010100000000000100000020
:1012CA000000010000000000010000000000010011
:1012DA000000000101010000000000000000000001
:1012EA0000000000000000000000000000000000F4
:1012FA0000010101000000000000000000000000E1
:10130A0000000000000000000000000000000000D3
:10131A0001010000000100000100000100000000BE
:10132A0000010000000000010001010000010000AE
:10133A00010000000101000000000000000000019F
:10134A00010100000001000001000001000001008D
:10135A00000101010000000100000100000100007D
:10136A00010000010000010000000000000000016F
:10137A00000001000001000001000001000001005E
:10138A00000100000100000100000100000100004E
:10139A00010000000101000000000000000000013F
:1013AA00010100000001000001000001000001002D
:1013BA00000101010000000100000000000100001E
:1013CA000000000100000000000000000000000012
:1013DA0001010000000100000100000100000100FD
:1013EA0000010000010000010000010000010000EE
:1013FA0001000000010100000000000000000000E0
:10140A0001010000000100000100000000000100CD
:10141A0000000001000000000100000000010000BF
:10142A0000000001010101000000000000000000AE
:10143A0000000000000000000000000000000000A2
:10144A00000101010000000000000000000000008F
:10145A000000000000000000000000000000000082
:10146A00010100000001000001000001000000006D
:10147A00000001010000000000000100000100005E
:10148A00010000000101000000000000000000014E
:10149A00010101000001000000000001000000003D
:1014AA00000101010000000100000000000100002D
:1014BA00000000010101010000000000000000001E
:1014CA00010100000001000001000001000000000D
:1014DA0000010000000000010000000000010000FF
:1014EA0001000000010100000000000000000000EF
:1014FA0001010000000100000100000100000000DD
:10150A0000010000000000010000000000010000CE
:10151A0001000000010100000000000000000001BD
:10152A0001010000000001000000000001000000AD
:10153A00000001000000000001000000000001009E
:10154A00000000010101000000000000000000008E
:10155A00010100000001000001000001000001007B
:10156A00000100000100000100000100000100006C
:10157A00010000000101000000000000000000015D
:10158A00000001000001000001000001010001004B
:10159A00000100010100000100000100000100003B
:1015AA00010000010000010000000000000000002E
:1015BA00010100000001000001000001000001001B
:1015CA00000100000100000101010100000100000A
:1015DA0001000001000001000000000000000000FE
:1015EA0000000000000001000000000000010000EF
:1015FA0000000000010000000001000000000100DE
:10160A0000000000000000000000000000000000D0
:10161A0000000000000000000000000000000000C0
:10162A0000000000000000000000000000000000B0
:08163A000000000000000000A8
:00000001FF
