:020000040000FA
:100000000C9438010C9469010C9469010C946901F9
:100010000C9469010C9469010C9469010C946901B8
:100020000C9469010C9469010C9469010C946901A8
:100030000C9469010C9469010C9469010C94690198
:100040000C9469010C9469010C9469010C94690188
:100050000C9469010C9469010C9469010C94580783
:100060000C9469010C9469010C9469010C94690168
:100070000C9469010C9469010C9469010C94690158
:100080000C9469010C9469010C9469010C94690148
:100090000C9469010C9469010C9469010C94690138
:1000A0000C9469010C9469010C9469010C94690128
:1000B0000C9469010C9469010C9469010C94690118
:1000C0000C9469010C9469010C9469010C94690108
:1000D0000C9469010C9469010C94CC070C94A20750
:1000E0000C9469010C94BC010C94D4020C9424036C
:1000F0000C9401030C94420E0C949B010C94B601D9
:100100000C9402080C9493010C94C9010C949E0168
:100110000C94A4010C946A030C94A8010C948F0114
:100120000C94B7030C9497010C94AE010C94C0018D
:100130000C94B2010C9410030C9432030C94C4017F
:100140000C94CE010C9489010C94CA01000021008A
:10015000240027002A002D00300033000101000098
:10016000040107010A0100002200250028002B00DD
:100170002E003100340002010000050108010B01CE
:10018000000020002300260029002C002F00320050
:100190000001000003010601090105050505070529
:1001A00008080808020202020A0A080804040404F3
:1001B000010101010101010103030303030303031F
:1001C000040707070C0C0C0C0C0C0C0C02020202AE
:1001D00006060606060606060B0B0B0B0B0B0B0B97
:1001E0000102102020080810204010204080020149
:1001F000020108040201010204081020408080402E
:10020000201008040201800402018040201008042C
:1002100002010804020101020408102040800102CA
:1002200004081020408000000A0B02090C0D0E0883
:1002300007030401000000000000000000000000AF
:1002400000000000000000000000000000000000AE
:10025000000012111000000000000000000000006B
:100260000000000000000000000000000208420E34
:1002700011241FBECFEFD1E2DEBFCDBF00E00CBF27
:1002800018E0A0E0B2E0E2EEF7E200E00BBF02C04F
:1002900007900D92A235B107D9F72BE0A2E5B8E09F
:1002A00001C01D92AE3BB207E1F711E0C7E3D1E018
:1002B00000E006C021970109802FFE010E94A411D1
:1002C000C633D10780E00807A9F70E94B6080C944E
:1002D000DF130C9400008150823108F05AC0E82FDF
:1002E000F0E08827E958FE4F8F4F0C94A411970136
:1002F0009B0189018F019301C9019E01A401A801FD
:10030000AE01B201B601BC01C001C901C401CA01FC
:10031000CE01809180008F77809380000895809136
:1003200080008F7DF9CF80918000877FF5CF84B5E5
:100330008F7784BD089584B58F7DFBCF8091B00009
:100340008F778093B00008958091B0008F7DF9CFB2
:10035000809190008F778093900008958091900015
:100360008F7DF9CF80919000877FF5CF8091A0009D
:100370008F778093A00008958091A0008F7DF9CFA2
:100380008091A000877FF5CF809120018F778093A7
:1003900020010895809120018F7DF9CF8091200167
:1003A000877FF5CFCF93DF93282F30E0F901EA5D07
:1003B000FD4F8491F901E052FE4FD491F901E656C8
:1003C000FE4FC491CC23A1F081110E946B01EC2F50
:1003D000F0E0EE0FFF1FE058FE4FA591B491EC91B5
:1003E000ED2381E090E009F480E0DF91CF91089562
:1003F00080E090E0FACF1F93CF93DF93282F30E077
:10040000F901EA5DFD4F8491F901E052FE4FD4916C
:10041000F901E656FE4FC491CC23A9F0162F8111A5
:100420000E946B01EC2FF0E0EE0FFF1FEA59FE4F28
:10043000A591B4918FB7F894EC91111108C0D095A3
:10044000DE23DC938FBFDF91CF911F910895DE2BC8
:10045000F8CFCF93DF9390E0FC01E052FE4F249160
:1004600086569E4FFC0184918823D1F090E0880F3E
:10047000991FFC01E45BFE4FA591B491FC01EA5980
:10048000FE4FC591D49161110EC09FB7F8948C9125
:10049000E22FE0958E238C932881E223E8839FBF8F
:1004A000DF91CF9108958FB7F894EC91E22BEC9304
:1004B0008FBFF6CF90917B00977F90937B00865300
:1004C000806480937C0080917A00806480937A00BD
:1004D00080917A0086FDFCCF809178009091790020
:1004E00008953FB7F8948091BB0A9091BC0AA091FF
:1004F000BD0AB091BE0A26B5A89B05C02F3F19F0D2
:100500000196A11DB11D3FBFBA2FA92F982F882793
:10051000BC01CD01620F711D811D911D42E0660F6E
:10052000771F881F991F4A95D1F708958F929F9240
:10053000AF92BF92CF92DF92EF92FF924B015C019C
:100540000E9471026B017C010E9471026C197D098D
:100550008E099F09683E734081059105A8F321E04B
:10056000821A9108A108B10888EEC80E83E0D81E4F
:10057000E11CF11C81149104A104B10429F7FF903E
:10058000EF90DF90CF90BF90AF909F908F900895A5
:100590002FB7F8946091B70A7091B80A8091B90AA0
:1005A0009091BA0A2FBF0895AF92BF92CF92DF9277
:1005B000EF92FF920F931F93CF93DF936C017B0118
:1005C0008B01040F151FEB015E01AE18BF08C017A9
:1005D000D10759F06991D601ED91FC910190F0811C
:1005E000E02DC6011995892B79F7C501DF91CF91CF
:1005F0001F910F91FF90EF90DF90CF90BF90AF9041
:100600000895FC01538D448D252F30E0842F90E018
:10061000821B930B541710F0CF96089501970895FD
:10062000FC01918D828D981761F0A28DAE0FBF2FC6
:10063000B11D5D968C91928D9F5F9F73928F90E01C
:1006400008958FEF9FEF0895FC01918D828D98178B
:1006500031F0828DE80FF11D858D90E008958FEFC8
:100660009FEF0895FC01918D228D892F90E0805C91
:100670009F4F821B91098F73992708958FEB9AE002
:100680000E94320321E0892B09F420E0822F089593
:10069000FC01A48DA80FB92FB11DA35ABF4F2C91F7
:1006A000848D90E001968F739927848FA689B789EE
:1006B0002C93A089B1898C91837080648C93938DE5
:1006C000848D981306C00288F389E02D80818F7D88
:1006D00080830895EF92FF920F931F93CF93DF9340
:1006E000EC0181E0888F9B8D8C8D98131AC0E8896E
:1006F000F989808185FF15C09FB7F894EE89FF893D
:100700006083E889F98980818370806480839FBFDA
:1007100081E090E0DF91CF911F910F91FF90EF90DA
:100720000895F62E0B8D10E00F5F1F4F0F731127EA
:10073000E02E8C8D8E110CC00FB607FCFACFE88925
:10074000F989808185FFF5CFCE010E944803F1CF62
:10075000EB8DEC0FFD2FF11DE35AFF4FF0829FB799
:10076000F8940B8FEA89FB8980818062CFCFCF9389
:10077000DF93EC01888D8823B9F0AA89BB89E889C9
:10078000F9898C9185FD03C0808186FD0DC00FB66F
:1007900007FCF7CF8C9185FFF2CF808185FFEDCFED
:1007A000CE010E944803E9CFDF91CF91089580E008
:1007B00090E0892B49F080E090E0892B29F00E949D
:1007C000000081110E94000080E090E0892B49F038
:1007D00080E090E0892B29F00E94000081110E94A6
:1007E000000080E090E0892B49F080E090E0892BC8
:1007F00029F00E94000081110E94000080E090E03A
:10080000892B29F00E943E0381110C940000089569
:100810002091A10A3091A20AFA01EE0FFF1FE858B9
:10082000F64F421753079CF4A191B191A817B9074D
:1008300059F4DA01AA0FBB1FA85AB74F0D90BC910B
:10084000A02DA617B70729F04F5F5F4FEACF80E0D2
:10085000089581E00895CF92DF92EF92FF920F9377
:100860001F93CF93DF931F921F92CDB7DEB769839B
:100870004A83880F991F0091B20B1091B30B000FA0
:10088000111FECE5FBE09F012C553B402017310781
:1008900014F41192F8CF2981FC01E45AF44F21831A
:1008A0008A81808360E08091B00B0E94FB0110166A
:1008B000110604F501501109F801E45AF44FE080E3
:1008C000D090AE0BC090AC0B88E0F82E6E2D661F5A
:1008D0006627661F8C2D0E94FB01EE0C61E08D2DBA
:1008E0000E94FB0160E08D2D0E94FB01FA94F11043
:1008F000EDCFDDCF61E08091B00B0F900F90DF91D5
:10090000CF911F910F91FF90EF90DF90CF900C94BB
:10091000FB01EF92FF921F93CF93DF932091B20BD5
:100920003091B30B82179307B4F4EC0123E0880FE6
:10093000991F2A95E1F79C012459344F790111E060
:10094000F70111927F0140E0612FCE010E942B043C
:100950001F5F1930A9F7DF91CF911F91FF90EF90A2
:1009600008950F931F93CF9388309105E4F48B0182
:10097000CEE2C80F61E08C2F0E94FB0160E0802F67
:100980000E94FB0161E070E080E090E00E9496022E
:1009900060E08C2F0E94FB0161E0802FCF911F91BE
:1009A0000F910C94FB012091B20B3091B30B1216F6
:1009B0001306ECF468307105D0F40897883091057F
:1009C000B4F440E850E09A0102C0359527958A9525
:1009D000E2F7FB01E45AF44F4089422B408B6F5FF2
:1009E00090E080E0CF911F910F910C942B04CF9158
:1009F0001F910F910895AF92BF92CF92DF92EF9225
:100A0000FF920F931F93CF93DF93EC0164E670E0A6
:100A10000E9490119B014CE946037001479FF00C26
:100A20001124EC0EFD1EC7016AE070E00E949011D7
:100A30008B0146EF4603E001479FD00D1124EC0ED9
:100A4000FD1EE90165E0CC0FDD1F6A95E1F7CE5E82
:100A5000DD4FCC24C394D12CB12CA12CF501EE0F89
:100A6000FF1FEE0FFF1FEC0FFD1F8081882321F079
:100A7000B501C6010E94B1048FEFA81AB80A88E038
:100A8000A816B10459F78FEFC81AD80A219685E045
:100A9000C816D10409F7E80145E0CC0FDD1F4A95DF
:100AA000E1F7CE5EDD4F06E010E0D12CC12CF6015F
:100AB000EE0FFF1FEE0FFF1FEC0FFD1F808188233D
:100AC00021F0B601C8010E94B1048FEFC81AD80AFC
:100AD00088E0C816D10459F721960F5F1F4F0A30DE
:100AE000110519F7E70195E0CC0FDD1F9A95E1F7A5
:100AF000CE5EDD4F2BE0E22EF12C10E000E0F8019D
:100B0000EE0FFF1FEE0FFF1FEC0FFD1F80818823EC
:100B100021F0B801C7010E94B1040F5F1F4F0830D8
:100B2000110569F721968FEFE81AF80A8FE0E816A9
:100B3000F10419F7DF91CF911F910F91FF90EF9082
:100B4000DF90CF90BF90AF900895FC01808191819C
:100B5000009711F00C945C120895FC0101900020A4
:100B6000E9F73197AF01481B590BBC018FEB9AE0B5
:100B70000C94D4028F929F92AF92BF920F931F93C7
:100B8000CF93DF93CDB7DEB7A1970FB6F894DEBF52
:100B90000FBECDBF19A2423008F44AE08E010F5DAE
:100BA0001F4F842E912CB12CA12CA50194010E94E1
:100BB0004010E62FB901CA01EA30F4F4E05DD80133
:100BC000EE938D01232B242B252B79F790E080E0E9
:100BD000109719F0CD010E94AD05A1960FB6F894BB
:100BE000DEBF0FBECDBFDF91CF911F910F91BF90A0
:100BF000AF909F908F900895E95CE1CFCF92DF9204
:100C0000EF92FF92CF93DF936B017C016DE28FEB4C
:100C10009AE00E946A03EC0166277727CB016C19E2
:100C20007D098E099F094AE00E94BA058C0F9D1F1D
:100C3000DF91CF91FF90EF90DF90CF900895BC01AE
:100C4000990F880B990B97FD0C94FE054AE00C94C4
:100C5000BA05CF93DF93BC01990F880B990B97FFCF
:100C60000CC00E94FE05EC0184EE97E00E94AD05E9
:100C70008C0F9D1FDF91CF9108954AE00E94BA0525
:100C8000F2CF8F929F92AF92BF92CF92DF92EF926C
:100C9000FF920E94920E2FE030E040E050E00E9470
:100CA0000E107093990A6093980A0E94920E27E0A2
:100CB00030E040E050E00E940E1070939B0A609379
:100CC0009A0A8FE0882E912CA12CB12C97E0C92E86
:100CD000D12CE12CF12C60919A0A70919B0A50E082
:100CE00040E08091980A9091990A0E940804882314
:100CF000A9F00E94920EA50194010E940E1070931B
:100D0000990A6093980A0E94920EA70196010E9488
:100D10000E1070939B0A60939A0ADDCFFF90EF90BC
:100D2000DF90CF90BF90AF909F908F900895FC017F
:100D300024813581232B39F421E0FB018081882334
:100D400049F020E007C0808191810E94CF1321E00B
:100D5000892BB9F7822F0895EF92FF920F931F937B
:100D6000CF93DF93EC017B018A0188819981009701
:100D700029F02A813B812417350788F4B8016F5F79
:100D80007F4F0E94E512009791F0998388831B831F
:100D90000A832C813D81232B11F4FC0110821D83D9
:100DA0000C83B701888199810E94D8130CC0888177
:100DB0009981009711F00E945C12198218821D829D
:100DC0001C821B821A82CE01DF91CF911F910F915D
:100DD000FF90EF9008952BE0843B920761F0FC01B7
:100DE000608171816115710549F04481558184EB01
:100DF0009BE00E94AC0684EB9BE008958091B40BCD
:100E00009091B50B009711F00E945C121092B50BF7
:100E10001092B40B1092B90B1092B80B1092B70B42
:100E20001092B60BE8CFCF93DF93EC0167EE77E03B
:100E300084EB9BE00E9497066AEE77E0882351F0EE
:100E4000CE010E94970681111FC0CE01DF91CF9184
:100E50000C94EB0684EB9BE00E94970667EE77E02C
:100E60008111EECF6FEE77E084EB9BE00E94970656
:100E700064EF77E08111E4CF84EB9BE00E9497065A
:100E80006FEE77E08111DCCFDF91CF910895FC0107
:100E9000118210821382128215821482FB0101904A
:100EA0000020E9F73197AF01461B570B0C94AC06B5
:100EB0001F920F920FB60F9211242F933F938F938F
:100EC0009F93AF93BF938091B70A9091B80AA09176
:100ED000B90AB091BA0A3091B60A23E0230F2D3730
:100EE00058F50196A11DB11D2093B60A8093B70A4B
:100EF0009093B80AA093B90AB093BA0A8091BB0A3A
:100F00009091BC0AA091BD0AB091BE0A0196A11DA4
:100F1000B11D8093BB0A9093BC0AA093BD0AB09305
:100F2000BE0ABF91AF919F918F913F912F910F90EA
:100F30000FBE0F901F90189526E8230F0296A11D53
:100F4000B11DD2CF1F920F920FB60F9211240BB684
:100F50000F922F933F934F935F936F937F938F9352
:100F60009F93AF93BF93EF93FF938FEB9AE00E9411
:100F70004803FF91EF91BF91AF919F918F917F9126
:100F80006F915F914F913F912F910F900BBE0F90FA
:100F90000FBE0F901F9018951F920F920FB60F92D1
:100FA00011240BB60F922F938F939F93EF93FF9380
:100FB000E091CF0AF091D00A8081E091D50AF091BA
:100FC000D60A82FD1DC090818091D80A8F5F8F73F1
:100FD0002091D90A821741F0E091D80AF0E0E1545B
:100FE000F54F958F8093D80AFF91EF919F918F9144
:100FF0002F910F900BBE0F900FBE0F901F90189562
:101000008081F2CFCF93DF931092C20A1092C10A6F
:1010100088EE93E0A0E0B0E08093C30A9093C40A06
:10102000A093C50AB093C60A86ED97E09093C00AD4
:101030008093BF0A85E391E09093CC0A8093CB0A1A
:1010400084E391E09093CE0A8093CD0A80E391E00F
:101050009093D00A8093CF0A81E391E09093D20AD3
:101060008093D10A82E391E09093D40A8093D30ACB
:1010700086E391E09093D60A8093D50A1092D80A1D
:101080001092D90A1092DA0A1092DB0A64EF77E024
:1010900084EB9BE00E944707CCE0D0E0D093AD0BFF
:1010A000C093AC0B8AE090E09093AF0B8093AE0BB3
:1010B0008BE090E09093B10B8093B00B81E090E0D7
:1010C0009093B30B8093B20B61E08CE00E942902F5
:1010D00061E08091AE0B0E94290261E08091B00B2B
:1010E0000E94290261E08091B00B0E94FB01D09325
:1010F000AD0BC093AC0BECE6FBE08CEA9BE01192ED
:101100008E179F07E1F7D0E0C0E08091B20B90917D
:10111000B30BC817D9073CF540E06FE0CE010E9441
:101120002B048091B20B9091B30BC817D9072CF404
:1011300047E06BE0CE010E942B0440E069E0CE0165
:101140000E942B04CE010E9489048091B20B9091E1
:10115000B30BC817D9072CF440E06CE0CE010E9415
:101160002B042196D2CFDF91CF910895CF93DF93B7
:10117000CDB7DEB72C970FB6F894DEBF0FBECDBF4C
:10118000789484B5826084BD84B5816084BD85B562
:10119000826085BD85B5816085BD80916E0081606E
:1011A00080936E0010928100809181008260809314
:1011B0008100809181008160809381008091800016
:1011C0008160809380008091B10084608093B10041
:1011D0008091B00081608093B00080919100826026
:1011E0008093910080919100816080939100809123
:1011F00090008160809390008091A1008260809334
:10120000A1008091A10081608093A1008091A00045
:1012100081608093A00080912101826080932101F0
:101220008091210181608093210180912001816062
:101230008093200180917A00846080937A0080916D
:101240007A00826080937A0080917A008160809336
:101250007A0080917A00806880937A001092C100B1
:10126000E091CF0AF091D00A82E08083E091CB0A2E
:10127000F091CC0A1082E091CD0AF091CE0A8FEC69
:1012800080831092D70AE091D30AF091D40A86E0C5
:101290008083E091D10AF091D20A808180618083BD
:1012A000E091D10AF091D20A808188608083E09138
:1012B000D10AF091D20A808180688083E091D10ABE
:1012C000F091D20A80818F7D808389E30E945A0247
:1012D000BC01990F880B990B61157105810591056A
:1012E00011F00E94E10E81E090E090930302809360
:1012F000020210E061E0812F0E94290261E0812F4B
:101300000E94FB011F5F1830A9F71EE261E0812FE8
:101310000E94290260E0812F0E94FB011F5F1933A8
:10132000A9F716E160E0812F0E9429021F5F1D319D
:10133000C9F786E10E94D2019093B20A8093B10A64
:1013400087E10E94D2019093B00A8093AF0A809106
:10135000B20B9091B30B1816190634F441E06CE00F
:1013600090E080E00E942B048091B20B9091B30B2F
:101370001816190634F448E06AE090E080E00E9414
:101380002B0488E10E94D2012091B50A892BC9F073
:10139000211109C021E02093B50A0E94C802709370
:1013A000B40A6093B30A80910602909107028230DA
:1013B000910509F479C16CF50197C1F10E94D70339
:1013C000E0CF222381F300910602109107021092D0
:1013D000B50A0E94C8022091B30A3091B40A621B78
:1013E000730B693B7B40FCF20130110559F482E03C
:1013F00090E0909307028093060290E080E00E94C4
:101400008904D1CFE1E0F0E0F0930702E093060217
:10141000F4CF8330910509F4D0C1049779F6809117
:101420009D0A90919E0A0E94FB04C8CF86E10E940B
:10143000D2014C019093B20A8093B10A87E10E94D5
:10144000D2018C019093B00A8093AF0A86E30E9488
:101450005A02BC01990F880B990B0E94F10E20E0F3
:1014600030EC4FE754E40E94DE102B013C01409227
:10147000AB0A5092AC0A6092AD0A7092AE0AA0908C
:10148000A90AB090AA0A012B09F48BC01501D12C2E
:10149000C12C10E000E0C6018E5A9C4F9C878B87C0
:1014A000C801820D931D97FF03C086579F4FFBCF46
:1014B0006AE870E00E94901198878F839093530898
:1014C0008093520840970CF5F12CE12CEB85FC85BC
:1014D000E00FF11FFA87E98726E02E9DF0012F9D8E
:1014E000F00D112489859A85E80FF91F80818823E2
:1014F00029F0B7018F8198850E94B1049FEFE91A06
:10150000F90AE8E0EE16F10439F70F5F1F4F0630D5
:10151000110531F6F0E3CF0ED11C26E0220E311C6E
:1015200040E5C41644E0D40609F0B3CF0E94C802D7
:101530002091040230910502621B730B072E000CF0
:10154000880B990B0E94F10E6B017C0120E030E0CA
:1015500046E154E4C301B2010E94500F20E030E0A4
:1015600040E752E40E9472109B01AC01C701B60132
:101570000E94861187FD22CF0E94C8027093050247
:101580006093040290E080E00E948904892809F4B5
:1015900083C08FEFA81AB80AB092AA0AA092A90A2B
:1015A0000DCFB7FE06C0E7E1F0E0F093AA0AE093A2
:1015B000A90A10E000E060E3362E6801F5E0CF0EE6
:1015C000D11CD0925308C0925208F12CE12CA0906B
:1015D000A90AB090AA0AC50167E170E00E949011C3
:1015E00026E02E9DF0012F9DF00D1124389E9001D4
:1015F000399E300D1124E20FF31FEE5AFC4FE00F1D
:10160000F11F8081882321F0B701C6010E94B10437
:101610004FEFE41AF40A88E0E816F104C1F60F5F10
:101620001F4F0630110549F6009104021091050282
:101630000150110910930502009304020E94C80290
:10164000601B710B072E000C880B990B0E94F10E8A
:101650006B017C0120E030E041EE54E4C301B201B3
:101660000E94500F20E030E048E453E40E947210E2
:101670009B01AC01C701B6010E94861187FD9ECE79
:101680000E94C802709305026093040290E080E01B
:101690000E948904892821F091E0A91AB1087CCF21
:1016A000EFEFAE1ABE0A78CF00910202109103024A
:1016B000C8010E94FB0489E10E94D201892B09F430
:1016C0006FC0043011050CF06BC00F5F1F4F1093FB
:1016D00003020093020290E080E00E9489046AEF16
:1016E00070E080E090E00E94960288E10E94D201C2
:1016F000892B09F463CE20910202309103024EEC53
:101700004203C001439F900D11248E539E4F90932E
:10171000A80A8093A70A90930102809300020E9476
:10172000C8027093A60A6093A50A1092A40A1092A8
:10173000A30A83E090E090930702809306020E9440
:10174000920E10927909109278090E94920E27E069
:1017500030E040E050E00E940E1070935908609312
:1017600058080E944106E1E0F0E0F093A20AE093FD
:10177000A10A45E050E064EF77E084EB9BE00E9433
:10178000AC061092A00A10929F0A10929E0A109224
:101790009D0A10929C0A90E080E00E9489040ECE7F
:1017A0008AE10E94D201892B09F49FCF02301105F2
:1017B0000CF49BCF015011098ACF89E10E94D2011C
:1017C000892B71F167EE77E0CE0101960E94470701
:1017D000CE0101960E941307CE0101960E94A50535
:1017E00088E598E098878F8358E7252E59E0352EB5
:1017F00071016C0110E000E08091A10A9091A20AB1
:10180000081719071CF5F601619171916F01F70135
:10181000819191917F010E94B1040F5F1F4FECCF26
:101820008AE10E94D2016AEE77E0892B69F68BE1AA
:101830000E94D2016FEE77E0892B31F68CE10E9495
:10184000D20164EF77E0892B59F2BECF60919A0AFA
:1018500070919B0A8091980A9091990A0E94B10414
:101860000E94C8027093A60A6093A50A2091A30A59
:101870003091A40AAB01421B530B2091000230911E
:101880000102421753070CF499CDCB010E941F06A9
:101890008AEF97E00E94AD058091A30A9091A40A77
:1018A0000E941F068CEF97E00E94AD058091A50A6B
:1018B0009091A60A2091A30A3091A40A821B930B4F
:1018C0000E941F068EEF97E00E94AD0580910002F6
:1018D000909101020E9429060E94C8027093A40AF6
:1018E0006093A30A8091A10A9091A20A9C01FC0135
:1018F000EE0FFF1FDF01A858B64FE85AF74F2150EF
:1019000031091297329737FD0CC04D915C911197B8
:1019100013965C934E931297408151815383428377
:10192000EECF01969093A20A8093A10A67EE77E02A
:1019300084EB9BE00E94970600915808109159088B
:10194000882309F48CC001501109109359080093A1
:10195000580880917809909179099093570880935D
:101960005608209158083091590830935508209313
:1019700054088031910518F428303105B8F0F1E0B1
:10198000F0939C0A0E941F0682E098E00E94AD0539
:1019900080915408909155080E94290685E098E0AE
:1019A0000E94AD0584EE97E00E94AD056091540859
:1019B0007091550841E050E0809156089091570889
:1019C0000E940804882359F021E020939C0A83E2B6
:1019D00098E00E94AD0584EE97E00E94AD0560910D
:1019E0009A0A70919B0A50E040E08091980A909189
:1019F000990A0E940804811162C080919F0A909107
:101A0000A00A181619060CF054C08091A10A9091F2
:101A1000A20A01979093A20A8093A10A80919C0A3E
:101A2000882309F4B8CE84E090E090930702809375
:101A300006022091A10A3091A20A90E080E082176C
:101A400093070CF0A6CEF101119211921F01EF81C4
:101A5000F88511921192F887EF830196F0CF6AEE24
:101A600077E084EB9BE00E949706882319F00F5FD4
:101A70001F4F6BCF00917809109179096FEE77E0D5
:101A800084EB9BE00E949706882339F001501109EE
:101A900010937909009378095CCF64EF77E084EBC9
:101AA0009BE00E949706882309F453CF0F5F1F4FD6
:101AB000EFCF01969093A00A80939F0AAFCF0E9428
:101AC000410600919D0A10919E0A0F5F1F4F1093CF
:101AD0009E0A00939D0A6091A70A7091A80A072E9A
:101AE000000C880B990B0E94F10E6B017C01B80170
:101AF000110F880B990B0E94F10E20E030E040EAB4
:101B000051E40E94DE109B01AC01C701B6010E94A6
:101B1000500F6B017C01AC019B010E948B1188234B
:101B2000F9F085E498E00E94AD0584EE97E00E940C
:101B3000AD056091A70A7091A80A6F5F7F4F072ECD
:101B4000000C880B990B0E94F10EA70196010E94D0
:101B500071100E94501170930102609300025ECFD9
:101B600046015701E894B7F82FEF3FEF4FE75FE7E3
:101B7000C501B4010E948B1181110DC02FEF3FEF01
:101B80004FE75FE7C501B4010E94EA0E18161CF486
:101B900089E498E0C8CF2FEF3FEF4FE75FE4C7013C
:101BA000B6010E94861118161CF48DE498E0BBCF94
:101BB0002FEF3FEF4FE75FECC701B6010E94EA0E3F
:101BC00087FDF3CF20E030E0A901C701B6010E94F4
:101BD000EA0E87FF54C06DE28FEB9AE00E946A0321
:101BE000C701B60190582AE037ED43EA5BE30E9453
:101BF00072102B013C010E9457114B015C010E94A5
:101C0000EF0E9B01AC01C301B2010E9471102B01C8
:101C10003C014AE0C501B4010E94BA056EE28FEBB7
:101C20009AE00E946A0320E030E040E251E4C30100
:101C3000B2010E94500F2B013C010E9457114B0131
:101C4000B12CA12C4AE0C501B4010E94BA05C5011E
:101C5000B4010E94EF0E9B01AC01C301B2010E94CE
:101C6000711020E030E040E251E40E94500F0E94E9
:101C7000571190E080E04AE00E94BA0556CFC701B4
:101C8000B601B1CF84EB9BE00C94A5058F929F9297
:101C9000AF92BF92CF92DF92EF92FF92CF93DF93FA
:101CA000EC01688179818A819B81611571058105CB
:101CB000910521F464E279ED8BE597E02DE133EFB6
:101CC00041E050E00E940E1049015A019B01AC0115
:101CD000A7EAB1E40E942D106B017C01ACEEB4EFD9
:101CE000A50194010E943B10C60ED71EE81EF91EE6
:101CF000F7FE06C081E0C81AD108E10880E8F80ABA
:101D0000C882D982EA82FB82C701B6019F77DF9140
:101D1000CF91FF90EF90DF90CF90BF90AF909F90CA
:101D20008F9008958F929F92AF92BF92CF92DF9241
:101D3000EF92FF92609108027091090280910A026D
:101D400090910B02611571058105910521F464E202
:101D500079ED8BE597E02DE133EF41E050E00E9413
:101D60000E1049015A019B01AC01A7EAB1E40E949F
:101D70002D106B017C01ACEEB4EFA50194010E9423
:101D80003B10C60ED71EE81EF91EF7FE06C081E006
:101D9000C81AD108E10880E8F80AC0920802D09277
:101DA0000902E0920A02F0920B02C701B6019F7786
:101DB000FF90EF90DF90CF90BF90AF909F908F906B
:101DC0000895609308027093090280930A02909329
:101DD0000B0208950E942C0F08F481E00895E89406
:101DE00009C097FB3EF490958095709561957F4F63
:101DF0008F4F9F4F9923A9F0F92F96E9BB27939511
:101E0000F695879577956795B795F111F8CFFAF420
:101E1000BB0F11F460FF1BC06F5F7F4F8F4F9F4F51
:101E200016C0882311F096E911C0772321F09EE8AF
:101E3000872F762F05C0662371F096E8862F70E015
:101E400060E02AF09A95660F771F881FDAF7880FEF
:101E50009695879597F90895990F0008550FAA0B45
:101E6000E0E8FEEF16161706E807F907C0F01216AD
:101E70001306E407F50798F0621B730B840B950BB0
:101E800039F40A2661F0232B242B252B21F4089505
:101E90000A2609F4A140A6958FEF811D811D0895A2
:101EA0000E94630F0C94D40F0E94C60F38F00E945A
:101EB000CD0F20F0952311F00C94BD0F0C94C30F9F
:101EC00011240C9408100E94E50F70F3959FC1F344
:101ED000950F50E0551F629FF001729FBB27F00DD8
:101EE000B11D639FAA27F00DB11DAA1F649F66272D
:101EF000B00DA11D661F829F2227B00DA11D621F7C
:101F0000739FB00DA11D621F839FA00D611D221F35
:101F1000749F3327A00D611D231F849F600D211D19
:101F2000822F762F6A2F11249F5750409AF0F1F09C
:101F300088234AF0EE0FFF1FBB1F661F771F881F05
:101F400091505040A9F79E3F510580F00C94BD0F71
:101F50000C9408105F3FE4F3983ED4F38695779590
:101F60006795B795F795E7959F5FC1F7FE2B880FAB
:101F7000911D9695879597F9089597F99F6780E841
:101F800070E060E008959FEF80EC089500240A94CB
:101F90001616170618060906089500240A94121644
:101FA0001306140605060895092E0394000C11F477
:101FB000882352F0BB0F40F4BF2B11F460FF04C024
:101FC0006F5F7F4F8F4F9F4F089557FD9058440F7D
:101FD000551F59F05F3F71F04795880F97FB991F88
:101FE00061F09F3F79F08795089512161306140645
:101FF000551FF2CF4695F1DF08C0161617061806D2
:10200000991FF1CF86957105610508940895E894AC
:10201000BB2766277727CB0197F90895052E97FBF5
:102020001EF400940E94251057FD07D00E94401016
:1020300007FC03D04EF40C94251050954095309534
:1020400021953F4F4F4F5F4F089590958095709524
:1020500061957F4F8F4F9F4F08950E946210A59FFB
:10206000900DB49F900DA49F800D911D1124089593
:10207000B7FF0C942D100E942D10821B930B089516
:10208000A1E21A2EAA1BBB1BFD010DC0AA1FBB1F7C
:10209000EE1FFF1FA217B307E407F50720F0A21BEE
:1020A000B30BE40BF50B661F771F881F991F1A945B
:1020B00069F760957095809590959B01AC01BD0185
:1020C000CF010895A29FB001B39FC001A39F700DDF
:1020D000811D1124911DB29F700D811D1124911D30
:1020E00008955058BB27AA270E9489100C94D40F3A
:1020F0000E94C60F38F00E94CD0F20F039F49F3FA8
:1021000019F426F40C94C30F0EF4E095E7FB0C943D
:10211000BD0FE92F0E94E50F58F3BA176207730746
:102120008407950720F079F4A6F50C9407100EF4B7
:10213000E0950B2EBA2FA02D0B01B90190010C01D7
:10214000CA01A0011124FF27591B99F0593F50F4EF
:10215000503E68F11A16F040A22F232F342F442747
:10216000585FF3CF469537952795A795F04053953F
:10217000C9F77EF41F16BA0B620B730B840BBAF00F
:102180009150A1F0FF0FBB1F661F771F881FC2F77A
:102190000EC0BA0F621F731F841F48F4879577958E
:1021A0006795B795F7959E3F08F0B0CF9395880F48
:1021B00008F09927EE0F9795879508950E94F210E1
:1021C0000C94D40F0E94CD0F58F00E94C60F40F01F
:1021D00029F45F3F29F00C94BD0F51110C940810A5
:1021E0000C94C30F0E94E50F68F39923B1F35523B4
:1021F00091F3951B550BBB27AA276217730784071A
:1022000038F09F5F5F4F220F331F441FAA1FA9F3AF
:1022100035D00E2E3AF0E0E832D091505040E6959D
:10222000001CCAF72BD0FE2F29D0660F771F881FFE
:10223000BB1F261737074807AB07B0E809F0BB0BF1
:10224000802DBF01FF2793585F4F3AF09E3F510505
:1022500078F00C94BD0F0C9408105F3FE4F3983EA7
:10226000D4F3869577956795B795F7959F5FC9F7EE
:10227000880F911D9695879597F90895E1E0660F6F
:10228000771F881FBB1F621773078407BA0720F0E8
:10229000621B730B840BBA0BEE1F88F7E095089551
:1022A0000E9457116894B1110C94081008950E946F
:1022B000ED0F88F09F5798F0B92F9927B751B0F0DC
:1022C000E1F0660F771F881F991F1AF0BA95C9F7BA
:1022D00014C0B13091F00E940710B1E008950C9441
:1022E0000710672F782F8827B85F39F0B93FCCF3F4
:1022F000869577956795B395D9F73EF49095809537
:10230000709561957F4F8F4F9F4F08950E942C0FBE
:1023100008F48FEF08950E942C0F880B990B0895F5
:1023200097FB072E16F4009407D077FD09D00E9482
:10233000AC1107FC05D03EF4909581959F4F089510
:10234000709561957F4F0895EE0FFF1F881F8BBF1B
:102350000790F691E02D1994AA1BBB1B51E107C011
:10236000AA1FBB1FA617B70710F0A61BB70B881F25
:10237000991F5A95A9F780959095BC01CD010895B4
:102380000F931F93CF93DF938230910510F482E077
:1023900090E0E091BC0BF091BD0B30E020E0B0E0AC
:1023A000A0E0309799F42115310509F44AC0281BA3
:1023B000390B24303105D8F58A819B81611571056F
:1023C00089F1FB0193838283FE0111C04081518119
:1023D0000281138148175907E0F04817590799F40B
:1023E000109761F012960C93129713961C933296E5
:1023F000CF01DF91CF911F910F9108950093BC0BF6
:102400001093BD0BF4CF2115310551F0421753073E
:1024100038F0A901DB019A01BD01DF01F801C1CF4C
:10242000EF01F9CF9093BD0B8093BC0BCDCFFE0194
:10243000E20FF31F8193919322503109398328834E
:10244000D7CF2091BA0B3091BB0B232B41F42091B5
:102450000E0230910F023093BB0B2093BA0B2091E8
:102460000C0230910D022115310541F42DB73EB714
:102470004091100250911102241B350BE091BA0BD0
:10248000F091BB0BE217F307A0F42E1B3F0B2817AC
:10249000390778F0AC014E5F5F4F2417350748F0DD
:1024A0004E0F5F1F5093BB0B4093BA0B81939193D8
:1024B0009FCFF0E0E0E09CCFCF93DF930097E9F06F
:1024C000FC01329713821282A091BC0BB091BD0B1C
:1024D000ED0130E020E01097A1F420813181820FDE
:1024E000931F2091BA0B3091BB0B2817390709F0C5
:1024F00061C0F093BB0BE093BA0BDF91CF910895CD
:10250000EA01CE17DF07E8F54A815B819E0141159C
:102510005105B1F7E901FB83EA8349915991C40F51
:10252000D51FEC17FD0761F4808191810296840F1D
:10253000951FE90199838883828193819B838A8394
:10254000F0E0E0E012968D919C9113970097B9F519
:102550002D913C911197CD010296820F931F2091EE
:10256000BA0B3091BB0B2817390739F6309751F564
:102570001092BD0B1092BC0BB093BB0BA093BA0B87
:10258000BCCFD383C28340815181840F951FC8176C
:10259000D90761F44E5F5F4F88819981480F591FB9
:1025A000518340838A819B819383828321153105E6
:1025B00009F0B0CFF093BD0BE093BC0B9ECFFD01B3
:1025C000DC01C0CF13821282D7CF4F925F926F92FD
:1025D0007F928F929F92AF92BF92CF92DF92EF92B3
:1025E000FF920F931F93CF93DF938C01009799F481
:1025F000CB01DF91CF911F910F91FF90EF90DF9072
:10260000CF90BF90AF909F908F907F906F905F9092
:102610004F900C94C011FC01E60FF71F9C01225053
:102620003109E217F30708F4AEC0D901CD91DC916E
:102630001197C617D70720F1C530D10578F0CE0124
:1026400004978617970750F0C61BD70B2297C193A4
:10265000D1936D937C93CF010E945C12C801DF91EE
:10266000CF911F910F91FF90EF90DF90CF90BF908F
:10267000AF909F908F907F906F905F904F90089554
:102680005B01AC1ABD0A4C018C0E9D1EA091BC0BC7
:10269000B091BD0B512C412CF12CE12C109731F550
:1026A0008091BA0B9091BB0B8815990509F05CC01D
:1026B0004616570608F058C080910C0290910D0202
:1026C000009741F48DB79EB74091100250911102CE
:1026D000841B950BE817F90708F055C0F093BB0B66
:1026E000E093BA0BF90171836083B8CF8D919C910F
:1026F000119712966C90129713967C901397A815C9
:10270000B90559F56C0142E0C40ED11CCA14DB04B2
:1027100020F1AC014A195B09DA011296159780F095
:102720006282738251834083D9016D937C93E1145B
:10273000F10471F0D7011396FC93EE9312978ECFAC
:1027400022968C0F9D1FF90191838083F301EFCFB7
:10275000F093BD0BE093BC0B81CF4816590608F4EB
:102760002C017D01D3019ACFCB010E94C0117C01C5
:10277000009749F0AE01B8010E94C613C8010E943B
:102780005C1287016BCF10E000E068CFFB01DC0139
:1027900002C001900D9241505040D8F70895FB01BE
:1027A000DC018D91019080190110D9F3990B0895E6
:1027B000FB01DC0101900D920020E1F7089511E08A
:1027C000C7E3D1E000E006C0802FFE010E94A41103
:1027D0002196011DC833D10780E00807A9F7F894B6
:1027E000FFCFFA000100140001000100000000000A
:1027F000BE0B80000000000000000100000100018D
:1028000000010001000100010001000100000100C1
:1028100000000000000000000000010000010100B5
:1028200000000100000001000000010000000100A4
:102830000000000000000000000101000000000195
:102840000000010100010000000100000001010181
:102850000000000000000000000101000000000175
:102860000001010000000001000000010001010062
:102870000000000000000000000100010001000154
:102880000001010100000001000000010000000142
:102890000000000000000000000101000001000035
:1028A0000001010000000001000000010001010022
:1028B0000000000000000000000001000001000016
:1028C0000001010000010001000100010000010001
:1028D00000000000000000000001010100000001F4
:1028E00000000100000001000000010000000100E4
:1028F00000000000000000000000010000010001D5
:1029000000000100000100010001000100000100C1
:1029100000000000000000000000010000010001B4
:1029200000000101000000010000000100000100A2
:102930000000000000000000000000000000000097
:102940000000000001000000000100000000010084
:102950000000000000010000000000000100000075
:102960000000000000000000000000010101000064
:102970000001000001000001000001000001010150
:102980000000000100000000000100000000000144
:102990000000000000000000000000010101000034
:1029A0000001000001000001000001000001010120
:1029B0000000000100000100000100000100000112
:1029C0000000010000000000000000000101000004
:1029D00000010000010000010000010000010000F2
:1029E00001000001010101000001000001000001DF
:1029F00000000100000000000000000001010000D4
:102A000000010000010000010000000000010000C2
:102A100000000001000000000001000001000000B3
:102A200001010000000000000000000001000000A3
:102A30000001010000000000010000000000010092
:102A40000000000001000000000001000000000183
:102A50000101000000000000000000000000000074
:102A60000000000000000000000000000001010163
:102A70000000000000000000000000000000000056
:102A80000000000000000000000000000101000044
:102A90000001000001000001000000000001000032
:102AA0000000000100010100000100000100000021
:102AB0000101000000000000000000010101000011
:102AC00000010000010000010000010000010101FF
:102AD00000000001000001000001000001000001F1
:102AE00000000100000000000000000100000100E3
:102AF00000010000010000010000010000010000D1
:102B000001000001000001000001000001000000C0
:102B100001010000000000000000000101010000B0
:102B2000000100000100000100000100000101019E
:102B30000000000100000000000100000000000192
:102B40000000000000000000000000000101000083
:102B50000001000001000001000001000001000070
:102B60000100000100000100000100000100000060
:102B70000101000000000000000000000101000051
:102B80000001000001000000000001000000000141
:102B90000000000001000000000100000000000132
:102BA0000101010000000000000000000000000022
:102BB0000000000000000000000000000001010112
:102BC0000000000000000000000000000000000005
:102BD00000000000000000000000000001010000F3
:102BE00000010000010000010000000000000101E0
:102BF00000000000000001000001000001000000D2
:102C000001010000000000000000000101010100BE
:102C100000010000000000010000000000010101AF
:102C200000000001000000000001000000000001A1
:102C3000010101000000000000000000010100008F
:102C40000001000001000001000000000001000080
:102C50000000000100000000000100000100000071
:102C60000101000000000000000000000101000060
:102C70000001000001000001000000000001000050
:102C80000000000100000000000100000100000041
:102C9000010100000000000000000001010100002F
:102CA0000000010000000000010000000000010021
:102CB0000000000001000000000001000000000111
:102CC0000101000000000000000000000101000000
:102CD00000010000010000010000010000010000EF
:102CE00001000001000001000001000001000000DF
:102CF00001010000000000000000000100000100D0
:102D000000010000010000010100010000010001BC
:102D100001000001000001000001000001000001AD
:102D200000000100000000000000000001010000A0
:102D3000000100000100000100000100000100008E
:102D4000010000010101010000010000010000017B
:102D50000000010000000000000000000000000072
:102D60000000010000000000000100000000000061
:102D70000100000000010000000001000000000050
:102D80000000000000000000000000000000000043
:102D90000000000000000000000000000000000033
:102DA0000000000000000000000000000000000023
:102DB00000000000000000006A03D4020103B70312
:102DC0003203100324030D0A00757000646F776EE0
:102DD000006C656674007269676874002D003D00C0
:102DE000202F20002C200050657264696F20706FC6
:102DF0007220636F6C6973696F6E20636F6E2062FF
:102E00006F7264650050657264696F20706F722024
:102E1000636F6C6973696F6E20636F6E7369676F40
:102E2000206D69736D6F006E616E00696E66006F74
:042E300076660000C2
:020000040003F7
:10E000000D9489F10D94B2F10D94B2F10D94B2F129
:10E010000D94B2F10D94B2F10D94B2F10D94B2F1F0
:10E020000D94B2F10D94B2F10D94B2F10D94B2F1E0
:10E030000D94B2F10D94B2F10D94B2F10D94B2F1D0
:10E040000D94B2F10D94B2F10D94B2F10D94B2F1C0
:10E050000D94B2F10D94B2F10D94B2F10D94B2F1B0
:10E060000D94B2F10D94B2F10D94B2F10D94B2F1A0
:10E070000D94B2F10D94B2F10D94B2F10D94B2F190
:10E080000D94B2F10D94B2F10D94B2F10D94B2F180
:10E090000D94B2F10D94B2F10D94B2F10D94B2F170
:10E0A0000D94B2F10D94B2F10D94B2F10D94B2F160
:10E0B0000D94B2F10D94B2F10D94B2F10D94B2F150
:10E0C0000D94B2F10D94B2F10D94B2F10D94B2F140
:10E0D0000D94B2F10D94B2F10D94B2F10D94B2F130
:10E0E0000D94B2F141546D656761323536300041AF
:10E0F000726475696E6F206578706C6F72657220DE
:10E1000073746B3530305632206279204D4C530099
:10E11000426F6F746C6F616465723E004875683F52
:10E1200000436F6D70696C6564206F6E203D200048
:10E130004350552054797065202020203D20005FF9
:10E140005F4156525F415243485F5F3D2000415658
:10E1500052204C696243205665723D20004743437C
:10E160002056657273696F6E203D20004350552024
:10E1700049442020202020203D20004C6F7720663D
:10E18000757365202020203D20004869676820665F
:10E190007573652020203D200045787420667573D6
:10E1A00065202020203D20004C6F636B2066757336
:10E1B000652020203D20004D617220203720323024
:10E1C000313300312E362E3800342E332E350056A2
:10E1D00023202020414444522020206F7020636F70
:10E1E00064652020202020696E73747275637469E1
:10E1F0006F6E2061646472202020496E74657272B3
:10E20000757074006E6F20766563746F7200726A49
:10E210006D702020006A6D70200057686174207056
:10E220006F72743A00506F7274206E6F7420737541
:10E2300070706F72746564004D7573742062652030
:10E2400061206C6574746572002000577269747483
:10E25000696E672045450052656164696E672045B7
:10E26000450045452065727220636E743D00504F35
:10E27000525400303D5A65726F2061646472003FF1
:10E280003D43505520737461747300403D454550C3
:10E29000524F4D207465737400423D426C696E6B41
:10E2A000204C454400453D44756D70204545505215
:10E2B0004F4D00463D44756D7020464C415348001B
:10E2C000483D48656C70004C3D4C69737420492F83
:10E2D0004F20506F72747300513D51756974005234
:10E2E0003D44756D702052414D00563D73686F7707
:10E2F00020696E7465727275707420566563746FF0
:10E30000727300593D506F727420626C696E6B00BD
:10E310002A0011241FBECFEFD1E2DEBFCDBF01E046
:10E320000CBF12E0A0E0B2E0EEE1FDEF03E00BBFB6
:10E3300002C007900D92A030B107D9F712E0A0E01B
:10E34000B2E001C01D92AE30B107E1F70F9460F367
:10E350000D948DFE01E20EBF0FEF0DBF11241FBE05
:10E360000D9460F30D9400F020E030E040ED57E0B4
:10E3700005C0FA013197F1F72F5F3F4F2817390792
:10E38000C0F308959C01260F311DC901A0E0B0E043
:10E390002F5F3F4FABBFFC018791882361F08093D3
:10E3A000C6008091C00086FFFCCF8091C0008064D1
:10E3B0008093C000EACF08958DE08093C6008091DD
:10E3C000C00086FFFCCF8091C00080648093C000B5
:10E3D0008AE08093C6008091C00086FFFCCF8091C8
:10E3E000C00080648093C00008950F94C2F10F9420
:10E3F000DCF10895FC019081992359F09093C600B7
:10E400008091C00086FFFCCF8091C0008064809323
:10E41000C0003196992379F70895282F982F929567
:10E420009F70892F805D8A3308F0895F8093C600D2
:10E430008091C00086FFFCCF8091C00080648093F3
:10E44000C000822F8F70982F905D9A3308F0995FEB
:10E450009093C6008091C00086FFFCCF8091C000E1
:10E4600080648093C00008959C01FB01853691056E
:10E470001CF46330710594F0C90164E670E00F94F8
:10E480002EFE605D7F4F6093C6008091C00086FFC6
:10E49000FCCF8091C00080648093C0002B30310598
:10E4A00014F43297B4F0C90164E670E00F942EFEC4
:10E4B0006AE070E00F942EFE605D7F4F6093C600AF
:10E4C0008091C00086FFFCCF8091C0008064809363
:10E4D000C000C9016AE070E00F942EFEC0968093E0
:10E4E000C6008091C00086FFFCCF8091C000806490
:10E4F0008093C00008951F93182F8EE692EE60E07F
:10E500000F94C2F11093C6008091C00086FFFCCF2B
:10E510008091C00080648093C0000F94DCF11F9153
:10E5200008952F923F924F925F926F927F928F92B7
:10E530009F92AF92BF92CF92DF92EF92FF920F9392
:10E540001F93DF93CF93CDB7DEB762970FB6F894E2
:10E55000DEBF0FBECDBF382E622ECA01DB015C01CB
:10E560006D01772420E2222E2E010894411C511CBB
:10E570008BC081E0A81680E0B80681E0C80680E084
:10E58000D80628F0C601AA27BB270F940DF2BB2797
:10E59000AD2D9C2D8B2D0F940DF28A2D0F940DF225
:10E5A0002092C6008091C00086FFFCCF8091C00001
:10E5B00080648093C0009DE29093C6008091C0006B
:10E5C00086FFFCCF8091C00080648093C0002092C1
:10E5D000C6008091C00086FFFCCF8091C00080649F
:10E5E0008093C00019828601750188249924A1E0D6
:10E5F0003A1651F03A1620F0B2E03B1661F409C029
:10E600000BBFF701779007C0C7010F9477FE782EF4
:10E6100002C0F7017080872D0F940DF22092C60082
:10E620008091C00086FFFCCF8091C0008064809301
:10E63000C000872D8052F401EF70F0708F3520F408
:10E64000E40DF51D708204C0E40DF51D8EE280839B
:10E650000894E11CF11C011D111D0894811C911CE2
:10E6600090E18916910409F0C2CF80E190E0A0E02A
:10E67000B0E0A80EB91ECA1EDB1E198AC2010F9493
:10E68000FAF10F94DCF16A94662009F072CF629679
:10E690000FB6F894DEBF0FBECDBFCF91DF911F91B3
:10E6A0000F91FF90EF90DF90CF90BF90AF909F9031
:10E6B0008F907F906F905F904F903F902F90089534
:10E6C0002F923F924F925F926F927F928F929F9282
:10E6D000AF92BF92CF92DF92EF92FF920F931F9370
:10E6E000DF93CF93CDB7DEB7CD53D1400FB6F894BB
:10E6F000DEBF0FBECDBF01E20EBF0FEF0DBF94B75F
:10E70000F894A89514BE80916000886180936000A1
:10E7100010926000789493FF05C0E0910002F091A0
:10E7200001021995279A2F9A8091C00082608093E8
:10E73000C00080E18093C40088E18093C1000000A4
:10E74000EE24FF24870144E0A42EB12CCC24DD2448
:10E7500024C0C5010197F1F70894E11CF11C011DCB
:10E76000111D21E2E2162EE4F20620E0020720E06D
:10E77000120718F031E0C32ED12CC801B70127ECE5
:10E780003BE140E050E00F9441FE611571058105C9
:10E79000910519F485B1805885B98091C00087FD35
:10E7A00003C0C114D104A9F2A6014F5F5F4FC25E3E
:10E7B000DE4F59834883CE51D140C25EDE4F8881FF
:10E7C0009981CE51D140019711F00D9410FEC05D9A
:10E7D000DE4F19821882C053D14060E0C15DDE4F28
:10E7E0001882CF52D14088249924C35DDE4F19820C
:10E7F0001882CD52D140C05EDE4F188219821A8233
:10E800001B82C052D140CE5CDE4F188219821A8220
:10E810001B82C253D140EE24FF2487010BBFF701B6
:10E8200007911691C45CDE4F19830883CC53D14005
:10E830000D940BFEC25EDE4F28813981CE51D1404E
:10E840002130310509F52091C600C25EDE4F1982E4
:10E850001882CE51D14022C02F5F3F4F4F4F5F4FA4
:10E86000213082E138078AE7480780E0580780F0C6
:10E87000C45CDE4FE881F981CC53D140EF5FFF4F9C
:10E8800019F0EE27FF27099420E030E040E050E047
:10E890008091C00087FFE0CF2091C600C35DDE4FAE
:10E8A00048815981CD52D1404F5F5F4FC35DDE4FEC
:10E8B00059834883CD52D140213209F063C64A3092
:10E8C000510508F05FC60894811C911C53E0851621
:10E8D000910409F059C600E010E018C081E280936D
:10E8E000C6008091C00086FFFCCF8091C00080648C
:10E8F0008093C0002F5F3F4F2931310579F70F9486
:10E90000DCF10F5F1F4F0530110519F020E030E0FA
:10E91000E5CF10920A0210920B0210920C02109294
:10E920000D02109206021092070210920802109235
:10E930000902109202021092030210920402109235
:10E9400005028FEE90EE60E00F94F5F180E191EE1C
:10E9500060E00F94C2F18091C00087FFFCCF9091DE
:10E96000C600903608F09F759032B8F09093C600BC
:10E970008091C00086FFFCCF8091C00080648093AE
:10E98000C000A0E2A093C6008091C00086FFFCCF2B
:10E990008091C00080648093C000983409F4D7C18E
:10E9A0009934B8F4923409F459C1933458F490333B
:10E9B00019F1903308F4E3C59F33A1F1903409F0C5
:10E9C000DEC5BDC0953409F470C1963409F0D7C5D1
:10E9D00098C1923509F42BC2933538F49C3409F46C
:10E9E000F5C1913509F0CBC518C2963509F445C279
:10E9F000993509F0C4C567C483E792EE62E00F94CD
:10EA0000F5F110920602109207021092080210927D
:10EA1000090210920A0210920B0210920C0210923C
:10EA20000D0213C18FE792EE62E00F94F5F18FEEC5
:10EA300090EE60E00F94F5F181E291EE60E00F94CA
:10EA4000C2F187EB91EE60E00F94F5F180E391EE77
:10EA500060E00F94C2F184EE90EE60E00F94F5F167
:10EA60008FE391EE60E00F94C2F186E090E061E008
:10EA700070E00F9434F20F94DCF18DE591EE60E0DC
:10EA80000F94C2F189EC91EE60E00F94F5F18EE401
:10EA900091EE60E00F94C2F183EC91EE60E00F9490
:10EAA000F5F18CE691EE60E00F94C2F18EE10F94E7
:10EAB0000DF288E90F940DF281E00F940DF20F949E
:10EAC000DCF18BE791EE60E00F94C2F119E0E0E039
:10EAD000F0E010935700E4918E2F0F940DF20F94F5
:10EAE000DCF18AE891EE60E00F94C2F1E3E0F0E03F
:10EAF00010935700E4918E2F0F940DF20F94DCF1D8
:10EB000089E991EE60E00F94C2F1E2E0F0E0109349
:10EB10005700E4918E2F0F940DF20F94DCF188EAE8
:10EB200091EE60E00F94C2F1E1E0F0E01093570045
:10EB30001491812F0F940DF20F94DCF107CF8BE825
:10EB400092EE62E00F94F5F18BE492EE60E00F94A8
:10EB5000F5F10F94DCF100E010E019C0C8016F2D51
:10EB60000F947FFEFF2031F489E492EE60E00F9471
:10EB7000C2F10BC0F092C6008091C00086FFFCCFAE
:10EB80008091C00080648093C0000F5F1F4FC80158
:10EB900081519F41A0E0B0E0ABBFFC01F790BAE229
:10EBA000FB1621F0E2E000301E07C1F60F94DCF105
:10EBB0000F94DCF187E592EE60E00F94F5F10F948D
:10EBC000DCF1CC24DD2400E010E01EC0C8010F946D
:10EBD00077FEF82E882331F489E492EE60E00F94FA
:10EBE000C2F10BC08093C6008091C00086FFFCCFAD
:10EBF0008091C00080648093C000FE1419F00894D6
:10EC0000C11CD11C0F5F1F4FC80181519F41A0E063
:10EC1000B0E0ABBFFC01E790FAE2EF1621F022E092
:10EC20000030120799F60F94DCF10F94DCF182E6C4
:10EC300092EE60E00F94C2F1C60161E070E00F94C3
:10EC400034F20F94DCF10F94DCF110920202109276
:10EC50000302109204021092050278CE89E992EE26
:10EC600062E00F94F5F1279A2F9A16C02F9880E052
:10EC700090E0E0EDF7E03197F1F7019684369105E9
:10EC8000C1F72F9A80E090E0E0EDF7E03197F1F7DF
:10EC9000019684369105C1F78091C00087FFE6CFC9
:10ECA0008091C00087FFFCCF64C485EA92EE62E0E9
:10ECB0000F94F5F140910202509103026091040219
:10ECC0007091050281E020E10F9491F2809102029F
:10ECD00090910302A0910402B091050280509F4FD1
:10ECE000AF4FBF4F8093020290930302A0930402A0
:10ECF000B093050280509041A040B04008F426CE69
:10ED0000A4CF83EB92EE62E00F94F5F140910602FE
:10ED100050910702609108027091090280E020E1A1
:10ED20000F9491F28091060290910702A09108023F
:10ED3000B091090280509F4FAF4FBF4F80930602A2
:10ED400090930702A0930802B0930902FFCD80ECD4
:10ED500092EE62E00F94F5F183E792EE60E00F949B
:10ED6000F5F18FE792EE60E00F94F5F18BE892EE0B
:10ED700060E00F94F5F189E992EE60E00F94F5F10F
:10ED800085EA92EE60E00F94F5F183EB92EE60E09D
:10ED90000F94F5F180EC92EE60E00F94F5F187ECC2
:10EDA00092EE60E00F94F5F188ED92EE60E00F9442
:10EDB000F5F18FED92EE60E00F94F5F18AEE92EEB0
:10EDC00060E00F94F5F183E093EEBDCD87EC92EE19
:10EDD00062E00F94F5F181E40F947BF282E40F94EA
:10EDE0007BF283E40F947BF284E40F947BF285E45E
:10EDF0000F947BF286E40F947BF287E40F947BF20E
:10EE000088E40F947BF28AE40F947BF28BE40F94F6
:10EE10007BF28CE40F947BF299CD88ED92EE62E068
:10EE20000F94F5F1772473948824992409C48FED05
:10EE300092EE62E00F94F5F140910A0250910B02BC
:10EE400060910C0270910D0282E020E10F9491F22A
:10EE500080910A0290910B02A0910C02B0910D02D8
:10EE600080509F4FAF4FBF4F80930A0290930B0289
:10EE7000A0930C02B0930D0269CD8AEE92EE62E08F
:10EE80000F94F5F184EE90EE60E00F94F5F18FECC5
:10EE900091EE60E00F94F5F1662477244301CC5D98
:10EEA000DE4F19821882C452D140D401C301B695F5
:10EEB000A79597958795CA5DDE4F88839983AA8326
:10EEC000BB83C652D140CC5DDE4FA881B981C4520C
:10EED000D1401196CC5DDE4FB983A883C452D14096
:10EEE000CD0162E070E00F9434F2B0E2B093C6005E
:10EEF0008091C00086FFFCCF8091C0008064809329
:10EF0000C000EDE2E093C6008091C00086FFFCCF18
:10EF10008091C00080648093C000F0E2F093C6004E
:10EF20008091C00086FFFCCF8091C00080648093F8
:10EF3000C000CA5DDE4FE880F9800A811B81C6529D
:10EF4000D140BB27A12F902F8F2D0F940DF2CA5DBA
:10EF5000DE4F8881C652D1400F940DF2B0E2FB2EF5
:10EF6000F092C6008091C00086FFFCCF8091C00067
:10EF700080648093C0000DE30093C6008091C000C0
:10EF800086FFFCCF8091C00080648093C00010E2B7
:10EF90001093C6008091C00086FFFCCF8091C00016
:10EFA00080648093C0008BBEF3012791C65DDE4F65
:10EFB0002883CA52D140A22EBB24CC24DD2408943D
:10EFC000611C711C811C911C8BBEF3018791282E42
:10EFD0003324442455240894611C711C811C911C09
:10EFE0008BBEF3013791C55DDE4F3883CB52D140E4
:10EFF0000894611C711C811C911C8BBEF30147910C
:10F00000C45DDE4F4883CC52D140ADEFEA2EAFEF66
:10F01000FA2EAFEF0A2FAFEF1A2F6E0C7F1C801E57
:10F02000911E142D032DF22CEE24EA0CFB1C0C1D5A
:10F030001D1D0F940DF220E22093C6008091C000A8
:10F0400086FFFCCF8091C00080648093C000C65DC5
:10F05000DE4F8881CA52D1400F940DF230E23093D6
:10F06000C6008091C00086FFFCCF8091C000806404
:10F070008093C000C45DDE4F8881CC52D1400F9494
:10F080000DF240E24093C6008091C00086FFFCCFA5
:10F090008091C00080648093C000C55DDE4F888190
:10F0A000CB52D1400F940DF250E25093C6008091A4
:10F0B000C00086FFFCCF8091C00080648093C000B8
:10F0C0008FEFE8168FEFF80680E0080780E018075A
:10F0D00031F484E092EE60E00F94C2F1DFC0D80119
:10F0E000C7018070907CA070B0708050904CA040A0
:10F0F000B040D1F52FEF3FE340E050E0E222F322B1
:10F1000004231523CA5DDE4FA880B980CA80DB8046
:10F11000C652D140AE0CBF1CC01ED11EAA0CBB1CD7
:10F12000CC1CDD1C8EE092EE60E00F94C2F1BB2798
:10F13000A12F902F8F2D0F940DF28E2D0F940DF285
:10F1400030E23093C6008091C00086FFFCCF8091F2
:10F15000C00080648093C0004EE34093C60080915D
:10F16000C00086FFFCCF87C08EE09EEFA0E0B0E03D
:10F17000E822F9220A231B239CE0E91694E9F90608
:10F1800090E0090790E0190709F088C0C45DDE4FE0
:10F19000A881CC52D140EA2EFF2400E010E0102FCD
:10F1A0000F2DFE2CEE24C55DDE4FB881CB52D14031
:10F1B000EB0EF11C011D111DD601C501817090706F
:10F1C000A070B070DC0199278827E80EF91E0A1F8D
:10F1D0001B1F20EF30E040E050E0A222B322C42207
:10F1E000D52241E1AA0CBB1CCC1CDD1C4A95D1F7F1
:10F1F000EA0CFB1C0C1D1D1D81E090E0A0E0B0E0BE
:10F20000282239224A225B2235E1220C331C441C7D
:10F21000551C3A95D1F7E20CF31C041D151D57013E
:10F220006801AA0CBB1CCC1CDD1C85E192EE60E0E1
:10F230000F94C2F1C801AA27BB270F940DF2BB2778
:10F24000A12F902F8F2D0F940DF28E2D0F940DF274
:10F2500090E29093C6008091C00086FFFCCF809121
:10F26000C00080648093C000AEE3A093C60080918C
:10F27000C00086FFFCCF8091C00080648093C000F6
:10F28000C601AA27BB270F940DF2BB27AD2D9C2DDD
:10F290008B2D0F940DF28A2D0F940DF20F94DCF14B
:10F2A000CC5DDE4FE881F981C452D140F99709F471
:10F2B0004DCBF4E0EF2EF12C012D112D6E0C7F1CA7
:10F2C000801E911EF2CD83E093EE62E00F94F5F183
:10F2D0008AE192EE60E00F94C2F18091C00087FF56
:10F2E000FCCF1091C6001F751093C6008091C0001E
:10F2F00086FFFCCF8091C00080648093C0000F9493
:10F30000DCF1812F81548A3108F036C1163409F4BA
:10F3100095C0173490F4133409F44EC0143430F40B
:10F320001134F1F0123409F01DC130C0143409F465
:10F3300059C0153409F016C16BC01A3409F4C4C0A1
:10F340001B3438F4173409F48FC0183409F00AC19B
:10F35000A1C01B3409F4D2C01C3409F003C1E8C0B9
:10F360008FEF81B90DC082B1809582B980E090E0C5
:10F37000E0EDF7E03197F1F70196883C9105C1F790
:10F380008091C00087FFEFCF12B8EFC08FEF84B934
:10F390000DC085B1809585B980E090E0E0EDF7E0A3
:10F3A0003197F1F70196883C9105C1F78091C00033
:10F3B00087FFEFCF15B8D9C08FEF87B90DC088B1DF
:10F3C000809588B980E090E0E0EDF7E03197F1F7C3
:10F3D0000196883C9105C1F78091C00087FFEFCF6F
:10F3E00018B8C3C08FEF8AB90DC08BB180958BB9A7
:10F3F00080E090E0E0EDF7E03197F1F70196883C8E
:10F400009105C1F78091C00087FFEFCF1BB8ADC059
:10F410008FEF8DB90DC08EB180958EB980E090E0F0
:10F42000E0EDF7E03197F1F70196883C9105C1F7DF
:10F430008091C00087FFEFCF1EB897C08FEF80BBD1
:10F440000DC081B3809581BB80E090E0E0EDF7E0F6
:10F450003197F1F70196883C9105C1F78091C00082
:10F4600087FFEFCF11BA81C08FEF83BB0DC084B38C
:10F47000809584BB80E090E0E0EDF7E03197F1F714
:10F480000196883C9105C1F78091C00087FFEFCFBE
:10F4900014BA6BC08FEF809301010FC080910201FD
:10F4A00080958093020180E090E0E0EDF7E03197F5
:10F4B000F1F70196883C9105C1F78091C00087FF64
:10F4C000EDCF1092020151C08FEF809304010FC065
:10F4D0008091050180958093050180E090E0E0ED4A
:10F4E000F7E03197F1F70196883C9105C1F78091DB
:10F4F000C00087FFEDCF1092050137C08FEF8093DA
:10F5000007010FC08091080180958093080180E079
:10F5100090E0E0EDF7E03197F1F70196883C910536
:10F52000C1F78091C00087FFEDCF109208011DC088
:10F530008FEF80930A010FC080910B01809580931B
:10F540000B0180E090E0E0EDF7E03197F1F70196F4
:10F55000883C9105C1F78091C00087FFEDCF1092E4
:10F560000B0103C085E292EEEEC98091C00087FFD7
:10F57000FCCF8091C600EAC988E392EEE4C98CE131
:10F5800091EEE1C988249924933011F1943028F444
:10F59000913089F09230B8F408C0953061F195301F
:10F5A000F0F0963009F048C043C02B3109F042C951
:10F5B00091E06BE13FC96227C15DDE4F2883CF52E6
:10F5C000D14092E037C9B22FA0E0622793E032C960
:10F5D000822F90E0A82BB92B622794E02BC92E3004
:10F5E00009F039C3622795E0C05DDE4F19821882A9
:10F5F000C053D1401FC9E1E0F0E0EC0FFD1FC05D3A
:10F60000DE4F08811981C053D140E00FF11F2083E4
:10F610000F5F1F4FC05DDE4F19830883C053D14079
:10F6200062270A171B0709F005C9D80196E002C92D
:10F63000261709F010C303C0973009F0FBC87724E0
:10F640009981933109F412C19431C8F4963009F4C8
:10F65000D8C0973050F4923009F406C1933009F4C1
:10F660006DC0913009F059C253C0913109F477C08F
:10F67000923108F0BBC0903109F04FC2F5C098310B
:10F6800009F487C0993150F4953109F4EFC09531F0
:10F6900008F4C6C1963109F040C2C2C19A3109F4DA
:10F6A0006CC09A3108F491C09B3109F45BC09D3164
:10F6B00009F033C29D81903359F48F81882311F46E
:10F6C0009EE11CC0813011F091E018C098E916C08D
:10F6D000892F807591F0903539F4E0E0F0E089E011
:10F6E0008093570094910AC0983539F4E3E0F0E034
:10F6F00089E080935700949101C090E01A821B82A8
:10F700008D818C831D829E831F8227E030E009C299
:10F710001A8288E08B8381E48C8386E58D8382E581
:10F720008E8389E48F8383E5888780E589878FE5E9
:10F730008A8782E38B872BE030E0F3C18A818139AD
:10F7400041F0823941F0803911F48FE005C080E04A
:10F7500003C082E001C08AE01A828B8344C0772410
:10F76000739482C08D81882311F48EE12CC0813086
:10F7700011F081E028C088E926C01A82E1E0F0E0BB
:10F7800089E08093570084918B831C8224E030E0D1
:10F79000C8C18B81803589F48C81883039F4E2E0EE
:10F7A000F0E089E08093570084910DC0E0E0F0E044
:10F7B00089E080935700849106C0E3E0F0E089E09F
:10F7C0008093570084911A82DFCF8D81836C99E0FA
:10F7D000E1E0F0E0082E90935700E89507B600FCB2
:10F7E000FDCF1A821B8223E030E09BC180EC8A832C
:10F7F000CE5CDE4F188219821A821B82C253D1401E
:10F800008EC18A8190E0A0E0B0E0582F44273327D2
:10F8100022278B8190E0A0E0B0E0DC0199278827C7
:10F82000282B392B4A2B5B2B8D8190E0A0E0B0E098
:10F83000282B392B4A2B5B2B8C8190E0A0E0B0E089
:10F84000BA2FA92F982F8827282B392B4A2B5B2BCF
:10F85000220F331F441F551FC05EDE4F288339839C
:10F860004A835B83C052D1401A8259C13A81C95C34
:10F87000DE4F3883C753D140CA5CDE4F1882C6536F
:10F88000D1408B81C82EDD24CA5CDE4F488159816E
:10F89000C653D140C42AD52A933109F082C0CE5C28
:10F8A000DE4F88819981AA81BB81C253D1408050AB
:10F8B000904CA340B04030F583E0CE5CDE4FE88052
:10F8C000F9800A811B81C253D140F70100935B008C
:10F8D00080935700E89507B600FCFDCFCE5CDE4F65
:10F8E000088119812A813B81C253D14000501F4FAA
:10F8F0002F4F3F4FCE5CDE4F088319832A833B8313
:10F90000C253D140C05EDE4F488159816A817B81FC
:10F91000C052D140DE011B9631E08C9111962C91A2
:10F9200011971296C75CDE4F2883C953D140C85C3B
:10F93000DE4F1882C853D14090E0C85CDE4FE881AA
:10F94000F981C853D1408E2B9F2B0C01FA01609393
:10F950005B0030935700E89511244E5F5F4F6F4F67
:10F960007F4F0EEFE02E0FEFF02ECE0CDF1CC114F8
:10F97000D10499F685E0C05EDE4F088119812A81A5
:10F980003B81C052D140F80120935B008093570027
:10F99000E89507B600FCFDCF81E180935700E8951C
:10F9A00035C0C05EDE4F88819981AA81BB81C0527B
:10F9B000D140B695A795979587957C018601ABE0D8
:10F9C000AA2EB12CAC0EBD1E0BC0D5016D915D01F0
:10F9D000C7010F947FFE0894E11CF11C01501040F8
:10F9E0000115110591F7A60160E070E0440F551F65
:10F9F000661F771FC05EDE4FE880F9800A811B8199
:10FA0000C052D1404E0D5F1D601F711F1A82C05E33
:10FA1000DE4F488359836A837B83C052D1407FC0C5
:10FA2000FA80C55CDE4FF882CB53D140C65CDE4F16
:10FA30001882CA53D1408B81C82EDD24C65CDE4FAC
:10FA400008811981CA53D140C02AD12A1A828981DA
:10FA5000BE016D5F7F4F843121F59601C05EDE4FA0
:10FA6000E880F9800A811B81C052D1400BBFF701A9
:10FA700087919691DB018C9311969C936E5F7F4FDB
:10FA8000D801C7010296A11DB11DC05EDE4F88835B
:10FA90009983AA83BB83C052D14022503040F1F6F3
:10FAA00036C0C05EDE4F288139814A815B81C052F9
:10FAB000D1400894C108D108760100E010E0089414
:10FAC000C11CD11C0894E11CF11C011D111DE20E8A
:10FAD000F31E041F151F21BDBB27A52F942F832FB5
:10FAE00082BD2F5F3F4F4F4F5F4FF89A80B5DB01CC
:10FAF0008D93BD012E153F054007510761F7C05E8C
:10FB0000DE4F288339834A835B83C052D1409601FC
:10FB10002D5F3F4FFB01108204C080EC8A8322E0FE
:10FB200030E08BE18093C6008091C00086FFFCCF5F
:10FB30008091C00080648093C000C15DDE4FF88179
:10FB4000CF52D140F093C6008091C00086FFFCCF19
:10FB50008091C00080648093C000432F3093C60022
:10FB60008091C00086FFFCCF8091C00080648093AC
:10FB7000C000922F2093C6008091C00086FFFCCF6A
:10FB80008091C00080648093C0008EE08093C600A6
:10FB90008091C00086FFFCCF8091C000806480937C
:10FBA000C00065E1C15DDE4FE880CF52D1406E25D7
:10FBB00069276427FE01319610C090819093C6009A
:10FBC0008091C00086FFFCCF31968091C000806498
:10FBD0008093C0006927215030402115310569F715
:10FBE0006093C6008091C00086FFFCCF8091C0006A
:10FBF00080648093C00085B1805885B9772081F4F6
:10FC0000C15DDE4F0881CF52D1400F5FC15DDE4F35
:10FC10000883CF52D14090E0A0E0B0E00D941AF4F8
:10FC200027982F9880E090E020ED37E0F901319798
:10FC3000F1F7019684369105C9F700008091C00064
:10FC40008D7F8093C00081E180935700E895EE2777
:10FC5000FF270994FFCF90E00D941AF497FB092E2B
:10FC600007260AD077FD04D02ED006D000201AF443
:10FC7000709561957F4F0895F6F7909581959F4F08
:10FC80000895A1E21A2EAA1BBB1BFD010DC0AA1FDD
:10FC9000BB1FEE1FFF1FA217B307E407F50720F0F5
:10FCA000A21BB30BE40BF50B661F771F881F991F70
:10FCB0001A9469F760957095809590959B01AC01B9
:10FCC000BD01CF010895AA1BBB1B51E107C0AA1FAC
:10FCD000BB1FA617B70710F0A61BB70B881F991FED
:10FCE0005A95A9F780959095BC01CD010895F99991
:10FCF000FECF92BD81BDF89A992780B50895262F31
:10FD0000F999FECF1FBA92BD81BD20BD0FB6F89400
:0EFD1000FA9AF99A0FBE01960895F894FFCF63
:00000001FF
